{
  "address": "0xD4663D84a0622DA1D8bF61D621Db1bD96ac4B2f3",
  "abi": [
    {
      "inputs": [
        {
          "internalType": "contract ContractRegistryInterface",
          "name": "contractRegistry",
          "type": "address"
        }
      ],
      "stateMutability": "nonpayable",
      "type": "constructor"
    },
    {
      "inputs": [],
      "name": "_contractRegistry",
      "outputs": [
        {
          "internalType": "contract ContractRegistryInterface",
          "name": "",
          "type": "address"
        }
      ],
      "stateMutability": "view",
      "type": "function"
    },
    {
      "inputs": [
        {
          "internalType": "uint256",
          "name": "name",
          "type": "uint256"
        },
        {
          "internalType": "uint256[]",
          "name": "path",
          "type": "uint256[]"
        }
      ],
      "name": "setEVMReverse",
      "outputs": [],
      "stateMutability": "nonpayable",
      "type": "function"
    }
  ],
  "transactionHash": "0x7cb4f4e0cf5d65476f8330c6b0fb7923ed02d0c0d186fdb8fe585c1110853884",
  "args": [
    "0x4832D668C2c75Fa10C597FD19B116d2E1873ED69"
  ],
  "numDeployments": 1,
  "solcInputHash": "04a43dc05d4fe8026069c5d5a5196fd2",
  "bytecode": "0x60a060405234801561001057600080fd5b506040516106ed3803806106ed833981810160405281019061003291906100e1565b8073ffffffffffffffffffffffffffffffffffffffff1660808173ffffffffffffffffffffffffffffffffffffffff16815250505061010e565b600080fd5b600073ffffffffffffffffffffffffffffffffffffffff82169050919050565b600061009c82610071565b9050919050565b60006100ae82610091565b9050919050565b6100be816100a3565b81146100c957600080fd5b50565b6000815190506100db816100b5565b92915050565b6000602082840312156100f7576100f661006c565b5b6000610105848285016100cc565b91505092915050565b6080516105be61012f600039600081816079015261020801526105be6000f3fe608060405234801561001057600080fd5b50600436106100365760003560e01c8063363c6d801461003b578063c1058b8f14610057575b600080fd5b610055600480360381019061005091906102cf565b610075565b005b61005f610206565b60405161006c91906103ae565b60405180910390f35b60007f000000000000000000000000000000000000000000000000000000000000000073ffffffffffffffffffffffffffffffffffffffff1663693ec85e6040518163ffffffff1660e01b81526004016100ce90610426565b602060405180830381865afa1580156100eb573d6000803e3d6000fd5b505050506040513d601f19601f8201168201806040525081019061010f9190610484565b905060008173ffffffffffffffffffffffffffffffffffffffff1663c60c835e60036040518263ffffffff1660e01b815260040161014d91906104c0565b602060405180830381865afa15801561016a573d6000803e3d6000fd5b505050506040513d601f19601f8201168201806040525081019061018e9190610484565b90508073ffffffffffffffffffffffffffffffffffffffff1663946aadc68686866040518463ffffffff1660e01b81526004016101cd93929190610556565b600060405180830381600087803b1580156101e757600080fd5b505af11580156101fb573d6000803e3d6000fd5b505050505050505050565b7f000000000000000000000000000000000000000000000000000000000000000081565b600080fd5b600080fd5b6000819050919050565b61024781610234565b811461025257600080fd5b50565b6000813590506102648161023e565b92915050565b600080fd5b600080fd5b600080fd5b60008083601f84011261028f5761028e61026a565b5b8235905067ffffffffffffffff8111156102ac576102ab61026f565b5b6020830191508360208202830111156102c8576102c7610274565b5b9250929050565b6000806000604084860312156102e8576102e761022a565b5b60006102f686828701610255565b935050602084013567ffffffffffffffff8111156103175761031661022f565b5b61032386828701610279565b92509250509250925092565b600073ffffffffffffffffffffffffffffffffffffffff82169050919050565b6000819050919050565b600061037461036f61036a8461032f565b61034f565b61032f565b9050919050565b600061038682610359565b9050919050565b60006103988261037b565b9050919050565b6103a88161038d565b82525050565b60006020820190506103c3600083018461039f565b92915050565b600082825260208201905092915050565b7f526576657273655265736f6c7665725265676973747279000000000000000000600082015250565b60006104106017836103c9565b915061041b826103da565b602082019050919050565b6000602082019050818103600083015261043f81610403565b9050919050565b60006104518261032f565b9050919050565b61046181610446565b811461046c57600080fd5b50565b60008151905061047e81610458565b92915050565b60006020828403121561049a5761049961022a565b5b60006104a88482850161046f565b91505092915050565b6104ba81610234565b82525050565b60006020820190506104d560008301846104b1565b92915050565b600082825260208201905092915050565b600080fd5b82818337505050565b600061050683856104db565b93507f07ffffffffffffffffffffffffffffffffffffffffffffffffffffffffffffff831115610539576105386104ec565b5b60208302925061054a8385846104f1565b82840190509392505050565b600060408201905061056b60008301866104b1565b818103602083015261057e8184866104fa565b905094935050505056fea26469706673582212208f9ac94873dab4b4bfba159f892b78a97532735934d62517bb0fb6c74428a57864736f6c63430008120033",
  "devdoc": {
    "kind": "dev",
    "methods": {},
    "version": 1
  },
  "userdoc": {
    "kind": "user",
    "methods": {
      "setEVMReverse(uint256,uint256[])": {
        "notice": "WARNING DO NOT LEAVE THIS PUBLIC! Anyone who can call this method can set the reverse record for your domain. Make sure you properly authenticate the caller."
      }
    },
    "version": 1
  },
  "storageLayout": {
    "storage": [],
    "types": null
  }
}