{
  "address": "0x27c922be70737f88fEd0044F5eA483151E700d95",
  "abi": [
    {
      "inputs": [
        {
          "internalType": "uint256",
          "name": "",
          "type": "uint256"
        },
        {
          "internalType": "uint256[]",
          "name": "",
          "type": "uint256[]"
        },
        {
          "internalType": "address",
          "name": "",
          "type": "address"
        }
      ],
      "name": "canWrite",
      "outputs": [
        {
          "internalType": "bool",
          "name": "",
          "type": "bool"
        }
      ],
      "stateMutability": "pure",
      "type": "function"
    }
  ],
  "transactionHash": "0x73fa0c742a087ed3a5e15ef36015c0ae18d4e2c3330c827e8609cb71900123cf",
  "args": [],
  "numDeployments": 1,
  "solcInputHash": "04a43dc05d4fe8026069c5d5a5196fd2",
  "bytecode": "0x608060405234801561001057600080fd5b50610349806100206000396000f3fe608060405234801561001057600080fd5b506004361061002b5760003560e01c8063e0f1bd9e14610030575b600080fd5b61004a6004803603810190610045919061026e565b610060565b60405161005791906102f8565b60405180910390f35b6000600190509392505050565b6000604051905090565b600080fd5b600080fd5b6000819050919050565b61009481610081565b811461009f57600080fd5b50565b6000813590506100b18161008b565b92915050565b600080fd5b6000601f19601f8301169050919050565b7f4e487b7100000000000000000000000000000000000000000000000000000000600052604160045260246000fd5b610105826100bc565b810181811067ffffffffffffffff82111715610124576101236100cd565b5b80604052505050565b600061013761006d565b905061014382826100fc565b919050565b600067ffffffffffffffff821115610163576101626100cd565b5b602082029050602081019050919050565b600080fd5b600061018c61018784610148565b61012d565b905080838252602082019050602084028301858111156101af576101ae610174565b5b835b818110156101d857806101c488826100a2565b8452602084019350506020810190506101b1565b5050509392505050565b600082601f8301126101f7576101f66100b7565b5b8135610207848260208601610179565b91505092915050565b600073ffffffffffffffffffffffffffffffffffffffff82169050919050565b600061023b82610210565b9050919050565b61024b81610230565b811461025657600080fd5b50565b60008135905061026881610242565b92915050565b60008060006060848603121561028757610286610077565b5b6000610295868287016100a2565b935050602084013567ffffffffffffffff8111156102b6576102b561007c565b5b6102c2868287016101e2565b92505060406102d386828701610259565b9150509250925092565b60008115159050919050565b6102f2816102dd565b82525050565b600060208201905061030d60008301846102e9565b9291505056fea2646970667358221220d0d2852136db03e709f728918b109d9ebbd52053f4e28b0810a8a1707c1d503264736f6c63430008120033",
  "devdoc": {
    "kind": "dev",
    "methods": {},
    "version": 1
  },
  "userdoc": {
    "kind": "user",
    "methods": {
      "canWrite(uint256,uint256[],address)": {
        "notice": "WARNING  Make sure you write your own logic to authenticate the sender. If you return true, the sender is able to write records to your domain name at the provided name & path."
      }
    },
    "version": 1
  },
  "storageLayout": {
    "storage": [],
    "types": null
  }
}